{
  "contractName": "Benefactor",
  "abi": [
    {
      "inputs": [
        {
          "internalType": "uint256",
          "name": "subPrice",
          "type": "uint256"
        },
        {
          "internalType": "uint256",
          "name": "subUnit",
          "type": "uint256"
        }
      ],
      "stateMutability": "nonpayable",
      "type": "constructor"
    },
    {
      "inputs": [
        {
          "internalType": "uint256",
          "name": "amount",
          "type": "uint256"
        },
        {
          "internalType": "uint64",
          "name": "period",
          "type": "uint64"
        }
      ],
      "name": "startSubscription",
      "outputs": [],
      "stateMutability": "payable",
      "type": "function"
    },
    {
      "inputs": [],
      "name": "cancelSubscription",
      "outputs": [],
      "stateMutability": "nonpayable",
      "type": "function"
    },
    {
      "inputs": [],
      "name": "getEtherBalance",
      "outputs": [
        {
          "internalType": "uint256",
          "name": "",
          "type": "uint256"
        }
      ],
      "stateMutability": "view",
      "type": "function"
    },
    {
      "inputs": [
        {
          "internalType": "address",
          "name": "account",
          "type": "address"
        }
      ],
      "name": "checkSubscription",
      "outputs": [
        {
          "internalType": "uint256",
          "name": "",
          "type": "uint256"
        },
        {
          "internalType": "uint64",
          "name": "",
          "type": "uint64"
        }
      ],
      "stateMutability": "view",
      "type": "function"
    },
    {
      "inputs": [
        {
          "internalType": "uint256",
          "name": "currentTimestamp",
          "type": "uint256"
        }
      ],
      "name": "checkProfits",
      "outputs": [
        {
          "internalType": "uint256",
          "name": "",
          "type": "uint256"
        }
      ],
      "stateMutability": "view",
      "type": "function"
    },
    {
      "inputs": [],
      "name": "ownerWithdrawal",
      "outputs": [],
      "stateMutability": "nonpayable",
      "type": "function"
    }
  ],
  "bytecode": "0x608060405234801561001057600080fd5b506040516109b43803806109b48339818101604052604081101561003357600080fd5b810190808051906020019092919080519060200190929190505050336000806101000a81548173ffffffffffffffffffffffffffffffffffffffff021916908373ffffffffffffffffffffffffffffffffffffffff1602179055508160038190555080600581905550426004819055505050610900806100b46000396000f3fe6080604052600436106100555760003560e01c806324e9edb01461005a5780634523a41b146100715780634f62647e146100c05780635a63b2ec14610140578063ea46193e14610182578063f27a0447146101ad575b600080fd5b34801561006657600080fd5b5061006f6101c4565b005b34801561007d57600080fd5b506100aa6004803603602081101561009457600080fd5b8101908080359060200190929190505050610538565b6040518082815260200191505060405180910390f35b3480156100cc57600080fd5b5061010f600480360360208110156100e357600080fd5b81019080803573ffffffffffffffffffffffffffffffffffffffff16906020019092919050505061059f565b604051808381526020018267ffffffffffffffff1667ffffffffffffffff1681526020019250505060405180910390f35b6101806004803603604081101561015657600080fd5b8101908080359060200190929190803567ffffffffffffffff169060200190929190505050610645565b005b34801561018e57600080fd5b50610197610775565b6040518082815260200191505060405180910390f35b3480156101b957600080fd5b506101c261077d565b005b60055442600160003373ffffffffffffffffffffffffffffffffffffffff1673ffffffffffffffffffffffffffffffffffffffff16815260200190815260200160002060000154600554600160003373ffffffffffffffffffffffffffffffffffffffff1673ffffffffffffffffffffffffffffffffffffffff16815260200190815260200160002060010160009054906101000a900467ffffffffffffffff1667ffffffffffffffff160201031161027c57600080fd5b600060055442600160003373ffffffffffffffffffffffffffffffffffffffff1673ffffffffffffffffffffffffffffffffffffffff16815260200190815260200160002060000154600554600160003373ffffffffffffffffffffffffffffffffffffffff1673ffffffffffffffffffffffffffffffffffffffff16815260200190815260200160002060010160009054906101000a900467ffffffffffffffff1667ffffffffffffffff160201038161033357fe5b049050600081600160003373ffffffffffffffffffffffffffffffffffffffff1673ffffffffffffffffffffffffffffffffffffffff16815260200190815260200160002060010160009054906101000a900467ffffffffffffffff1667ffffffffffffffff160390505b600160003373ffffffffffffffffffffffffffffffffffffffff1673ffffffffffffffffffffffffffffffffffffffff16815260200190815260200160002060010160009054906101000a900467ffffffffffffffff1667ffffffffffffffff1681116104845760035460026000600554600160003373ffffffffffffffffffffffffffffffffffffffff1673ffffffffffffffffffffffffffffffffffffffff1681526020019081526020016000206000015485028161045b57fe5b04815260200190815260200160002060008282540392505081905550808060010191505061039e565b50600160003373ffffffffffffffffffffffffffffffffffffffff1673ffffffffffffffffffffffffffffffffffffffff1681526020019081526020016000206000808201600090556001820160006101000a81549067ffffffffffffffff021916905550503373ffffffffffffffffffffffffffffffffffffffff166108fc82600354029081150290604051600060405180830381858888f19350505050158015610534573d6000803e3d6000fd5b5050565b60008060055460045442038161054a57fe5b04905060008090506000600190505b828111610594576002600060055460045484028161057357fe5b04815260200190815260200160002054820191508080600101915050610559565b508092505050919050565b600080600160008473ffffffffffffffffffffffffffffffffffffffff1673ffffffffffffffffffffffffffffffffffffffff16815260200190815260200160002060000154600160008573ffffffffffffffffffffffffffffffffffffffff1673ffffffffffffffffffffffffffffffffffffffff16815260200190815260200160002060010160009054906101000a900467ffffffffffffffff1691509150915091565b81341461065157600080fd5b8067ffffffffffffffff1660035402821461066b57600080fd5b42600160003373ffffffffffffffffffffffffffffffffffffffff1673ffffffffffffffffffffffffffffffffffffffff1681526020019081526020016000206000018190555080600160003373ffffffffffffffffffffffffffffffffffffffff1673ffffffffffffffffffffffffffffffffffffffff16815260200190815260200160002060010160006101000a81548167ffffffffffffffff021916908367ffffffffffffffff1602179055506000600190505b8167ffffffffffffffff16811161077057600354600260006005544285028161074757fe5b048152602001908152602001600020600082825401925050819055508080600101915050610722565b505050565b600047905090565b3373ffffffffffffffffffffffffffffffffffffffff166000809054906101000a900473ffffffffffffffffffffffffffffffffffffffff1673ffffffffffffffffffffffffffffffffffffffff16146107d657600080fd5b600554600454420310156107e957600080fd5b60006005546004544203816107fa57fe5b04905060008090506000600190505b82811161086a576002600060055460045484028161082357fe5b04815260200190815260200160002054820191506002600060055460045484028161084a57fe5b048152602001908152602001600020600090558080600101915050610809565b503373ffffffffffffffffffffffffffffffffffffffff166108fc829081150290604051600060405180830381858888f193505050501580156108b1573d6000803e3d6000fd5b5060055442816108bd57fe5b064203600481905550505056fea2646970667358221220222f6f521a3997630a0ae3e7b81829747a903b595312a7a5fd273c90b0eba69164736f6c63430006090033",
  "immutableReferences": {},
  "source": "pragma solidity >=0.4.21 <0.7.0;\n\ncontract Benefactor {\n    struct Sub {\n        uint256 subStart; //timestamp of start of subscription\n        uint64 period; //period of subscription\n    }\n\n    address private _owner; //contract owner that collects subscription fees\n    mapping(address => Sub) private _currSubs; //current subs mapped to period of subscription and timestamp of start of subscription\n    mapping(uint256 => uint256) unitProfit; //mapping of subscription earnings per unit of time in subscription\n    uint256 private _subPrice; //subscription price\n    uint256 _withdrawStamp; //last timestamp owner withdrew earnings\n    uint256 _subUnit; //subscription charge unit of time\n    \n    constructor(uint256 subPrice, uint256 subUnit) public {\n        _owner = msg.sender;\n        _subPrice = subPrice;\n        _subUnit = subUnit;\n        _withdrawStamp = block.timestamp;\n    }\n    \n    modifier onlyOwner() {\n        require(_owner == msg.sender);\n        _;\n    }\n\n    function startSubscription(uint256 amount, uint64 period) payable external {\n        require(msg.value == amount);\n        require(amount == _subPrice*period);\n        _currSubs[msg.sender].subStart = block.timestamp;\n        _currSubs[msg.sender].period = period;\n        for(uint i = 1; i <= period; i++) {\n            unitProfit[(i * block.timestamp) / _subUnit] += _subPrice; //add subscription fees for each unit of time the user will be subbed for\n        }\n    }\n\n    function cancelSubscription() external {\n        require((_currSubs[msg.sender].period*_subUnit + _currSubs[msg.sender].subStart - block.timestamp) > _subUnit);\n        uint256 tokenRet = (_currSubs[msg.sender].period*_subUnit + _currSubs[msg.sender].subStart - block.timestamp) / _subUnit; //get number of subscription units left before subscription ends\n        for(uint i = _currSubs[msg.sender].period - tokenRet; i <= _currSubs[msg.sender].period; i++) {\n            unitProfit[(i * _currSubs[msg.sender].subStart) / _subUnit] -= _subPrice; //remove refunded subscription fees for each unit of time left\n        }\n        delete _currSubs[msg.sender];\n        msg.sender.transfer(_subPrice*tokenRet); //refund whats left of subscription\n    }\n    \n    function getEtherBalance() external view returns (uint256) {\n        return address(this).balance;\n    }\n\n    function checkSubscription(address account) external view returns(uint256, uint64) {\n        return (_currSubs[account].subStart, _currSubs[account].period);\n    }\n\n    function checkProfits(uint256 currentTimestamp) external view returns(uint256) {\n        uint256 finPeriod = ((block.timestamp - _withdrawStamp) / _subUnit);\n        uint256 totalWithdrawal = 0;\n        for(uint i = 1; i <= finPeriod; i++) {\n            totalWithdrawal += unitProfit[(i * _withdrawStamp) / _subUnit];\n        }\n        return totalWithdrawal;\n    }\n\n    function ownerWithdrawal() external onlyOwner {\n        require((block.timestamp - _withdrawStamp) >= _subUnit);\n        uint256 finPeriod = ((block.timestamp - _withdrawStamp) / _subUnit); //get period between last withdrawal and now\n        uint256 totalWithdrawal = 0;\n        for(uint i = 1; i <= finPeriod; i++) {\n            totalWithdrawal += unitProfit[(i * _withdrawStamp) / _subUnit];\n            delete unitProfit[(i * _withdrawStamp) / _subUnit];\n        }\n        msg.sender.transfer(totalWithdrawal);\n        _withdrawStamp = block.timestamp - (block.timestamp % _subUnit); //update withdraw timestamp with current time, but adjust so we don't skip a unit of time for next withdrawal\n    }\n}",
  "sourcePath": "/mnt/d/UbuntuHome/projects/Benefactor/contracts/Benefactor.sol",
  "compiler": {
    "name": "solc",
    "version": "0.6.9+commit.3e3065ac.Emscripten.clang"
  },
  "schemaVersion": "3.3.3",
  "updatedAt": "2021-01-07T01:56:56.811Z",
  "devdoc": {
    "methods": {}
  },
  "userdoc": {
    "methods": {}
  }
}